:020000040800F2
:1000000000500020812E00086D2D0008752D00087D
:100010007D2D0008852D00088D2D000800000000B2
:10002000000000000000000000000000952D000806
:10003000A12D000800000000AD2D0008B92D00081A
:10004000C92E0008C92E0008C92E0008C92E0008B4
:10005000C92E0008C92E0008C92E0008C92E0008A4
:10006000C92E0008C92E0008C92E0008C92E000894
:10007000C92E0008C92E0008C92E0008C92E000884
:10008000C92E0008C92E0008C92E0008C92E000874
:10009000C92E0008C92E0008C92E0008C92E000864
:1000A000C92E0008C92E0008C92E0008C92E000854
:1000B000C92E0008C92E0008C92E0008C92E000844
:1000C000C92E0008C92E0008C92E0008C92E000834
:1000D000C92E0008C92E0008C92E0008C92E000824
:1000E000C92E0008C92E0008C92E00080000000013
:1000F0000000000000000000000000000000000000
:0C01000000000000000000005FF808F1A3
:1001100010B5054C237833B9044B13B10448AFF341
:1001200000800123237010BDC400002000000000E7
:100130009434000808B5034B1BB103490348AFF3DF
:10014000008008BD00000000C800002094340008B2
:1001500081F0004102E000BF83F0004330B54FEA78
:1001600041044FEA430594EA050F08BF90EA020FE5
:100170001FBF54EA000C55EA020C7FEA645C7FEA78
:10018000655C00F0E2804FEA5454D4EB5555B8BF9B
:100190006D420CDD2C4480EA020281EA030382EA0C
:1001A000000083EA010180EA020281EA0303362D9E
:1001B00088BF30BD11F0004F4FEA01314FF4801C71
:1001C0004CEA113102D0404261EB410113F0004F83
:1001D0004FEA03334CEA133302D0524263EB43033A
:1001E00094EA050F00F0A780A4F10104D5F1200ED8
:1001F0000DDB02FA0EFC22FA05F2801841F1000133
:1002000003FA0EF2801843FA05F359410EE0A5F106
:1002100020050EF1200E012A03FA0EFC28BF4CF037
:10022000020C43FA05F3C01851EBE37101F00045ED
:1002300007D54FF0000EDCF1000C7EEB00006EEBFA
:100240000101B1F5801F1BD3B1F5001F0CD3490884
:100250005FEA30004FEA3C0C04F101044FEA4452DB
:1002600012F5800F80F09A80BCF1004F08BF5FEA62
:10027000500C50F1000041EB045141EA050130BD42
:100280005FEA4C0C404141EB0101013C28BFB1F554
:10029000801FE9D291F0000F04BF01460020B1FA9F
:1002A00081F308BF2033A3F10B03B3F120020CDA72
:1002B0000C3208DD02F1140CC2F10C0201FA0CF050
:1002C00021FA02F10CE002F11402D8BFC2F1200CB5
:1002D00001FA02F120FA0CFCDCBF41EA0C0190406B
:1002E000E41AA2BF01EB0451294330BD6FEA0404B4
:1002F0001F3C1CDA0C340EDC04F11404C4F120029F
:1003000020FA04F001FA02F340EA030021FA04F3B0
:1003100045EA030130BDC4F10C04C4F1200220FA07
:1003200002F001FA04F340EA0300294630BD21FA45
:1003300004F0294630BD94F0000F83F4801306BF0B
:1003400081F480110134013D4EE77FEA645C18BFFF
:100350007FEA655C29D094EA050F08BF90EA020F96
:1003600005D054EA000C04BF1946104630BD91EA8E
:10037000030F1EBF0021002030BD5FEA545C05D191
:100380004000494128BF41F0004130BD14F58004D0
:100390003CBF01F5801130BD01F0004545F0FE4144
:1003A00041F470014FF0000030BD7FEA645C1ABF79
:1003B000194610467FEA655C1CBF0B46024650EAB0
:1003C000013406BF52EA033591EA030F41F40021DC
:1003D00030BD00BF90F0000F04BF0021704730B562
:1003E0004FF4806404F132044FF000054FF0000137
:1003F00050E700BF90F0000F04BF0021704730B5F8
:100400004FF4806404F1320410F0004548BF4042CC
:100410004FF000013EE700BF42004FEAE2014FEA21
:1004200031014FEA02701FBF12F07F4393F07F4FFC
:1004300081F06051704732F07F4208BF704793F0FF
:100440007F4F04BF41F40021704730B54FF4607412
:1004500001F0004521F000411CE700BF50EA010215
:1004600008BF704730B54FF000050AE050EA0102BE
:1004700008BF704730B511F0004502D5404261EB2E
:1004800041014FF4806404F132045FEA915C3FF46F
:10049000D8AE4FF003025FEADC0C18BF03325FEA0C
:1004A000DC0C18BF033202EBDC02C2F1200300FABD
:1004B00003FC20FA02F001FA03FE40EA0E0021FAE2
:1004C00002F11444BDE600BF70B54FF0FF0C4CF4D0
:1004D000E06C1CEA11541DBF1CEA135594EA0C0F82
:1004E00095EA0C0F00F0DEF82C4481EA030621EABD
:1004F0004C5123EA4C5350EA013518BF52EA0335F8
:1005000041F4801143F4801338D0A0FB02CE4FF0A9
:100510000005E1FB02E506F00042E0FB03E54FF0D9
:100520000006E1FB03569CF0000F18BF4EF0010ED1
:10053000A4F1FF04B6F5007F64F5407404D25FEACD
:100540004E0E6D4146EB060642EAC62141EA555180
:100550004FEAC52040EA5E504FEACE2EB4F1FD0CC2
:1005600088BFBCF5E06F1ED8BEF1004F08BF5FEA40
:10057000500E50F1000041EB045170BD06F00046F2
:1005800046EA010140EA020081EA0301B4EB5C049F
:10059000C2BFD4EB0C0541EA045170BD41F4801197
:1005A0004FF0000E013C00F3AB8014F1360FDEBFBC
:1005B000002001F0004170BDC4F10004203C35DA98
:1005C0000C341BDC04F11404C4F1200500FA05F31B
:1005D00020FA04F001FA05F240EA020001F00042BC
:1005E00021F0004110EBD37021FA04F642EB060132
:1005F0005EEA430E08BF20EAD37070BDC4F10C045C
:10060000C4F1200500FA04F320FA05F001FA04F21F
:1006100040EA020001F0004110EBD37041F100010B
:100620005EEA430E08BF20EAD37070BDC4F1200516
:1006300000FA05F24EEA020E20FA04F301FA05F27E
:1006400043EA020321FA04F001F0004121FA04F226
:1006500020EA020000EBD3705EEA430E08BF20EAF6
:10066000D37070BD94F0000F0FD101F00046400030
:1006700041EB010111F4801F08BF013CF7D041EAB2
:10068000060195F0000F18BF704703F000465200B6
:1006900043EB030313F4801F08BF013DF7D043EA87
:1006A0000603704794EA0C0F0CEA135518BF95EA3D
:1006B0000C0F0CD050EA410618BF52EA4306D1D1C4
:1006C00081EA030101F000414FF0000070BD50EAE3
:1006D000410606BF1046194652EA430619D094EA6D
:1006E0000C0F02D150EA013613D195EA0C0F05D157
:1006F00052EA03361CBF104619460AD181EA0301AB
:1007000001F0004141F0FE4141F470014FF0000062
:1007100070BD41F0FE4141F4780170BD70B54FF0FD
:10072000FF0C4CF4E06C1CEA11541DBF1CEA13557D
:1007300094EA0C0F95EA0C0F00F0A7F8A4EB05045F
:1007400081EA030E52EA03354FEA013100F0888056
:100750004FEA03334FF0805545EA131343EA12631F
:100760004FEA022245EA111545EA10654FEA0026D4
:100770000EF000419D4208BF964244F1FD0404F58D
:10078000407402D25B084FEA3202B61A65EB0305E9
:100790005B084FEA32024FF480104FF4002CB6EBA6
:1007A000020E75EB030E22BFB61A754640EA0C0026
:1007B0005B084FEA3202B6EB020E75EB030E22BF66
:1007C000B61A754640EA5C005B084FEA3202B6EBA7
:1007D000020E75EB030E22BFB61A754640EA9C0066
:1007E0005B084FEA3202B6EB020E75EB030E22BF36
:1007F000B61A754640EADC0055EA060E18D04FEAF4
:10080000051545EA16754FEA06164FEAC30343EA93
:1008100052734FEAC2025FEA1C1CC0D111F4801F60
:100820000BD141EA00014FF000004FF0004CB6E759
:1008300011F4801F04BF01430020B4F1FD0C88BFF8
:10084000BCF5E06F3FF6AFAEB5EB030C04BFB6EB03
:10085000020C5FEA500C50F1000041EB045170BDF6
:100860000EF0004E4EEA113114EB5C04C2BFD4EB23
:100870000C0541EA045170BD41F480114FF0000EA7
:10088000013C90E645EA060E8DE60CEA135594EA23
:100890000C0F08BF95EA0C0F3FF43BAF94EA0C0F26
:1008A0000AD150EA01347FF434AF95EA0C0F7FF49B
:1008B00025AF104619462CE795EA0C0F06D152EAEF
:1008C00003353FF4FDAE1046194622E750EA4106D3
:1008D00018BF52EA43067FF4C5AE50EA41047FF4E4
:1008E0000DAF52EA43057FF4EBAE12E74FF0FF3C49
:1008F00006E000BF4FF0010C02E000BF4FF0010C1A
:100900004DF804CD4FEA410C7FEA6C5C4FEA430C92
:1009100018BF7FEA6C5C1BD001B050EA410C0CBFE1
:1009200052EA430C91EA030F02BF90EA020F002043
:10093000704710F1000F91EA030F58BF994208BFAA
:1009400090422CBFD8176FEAE37040F00100704767
:100950004FEA410C7FEA6C5C02D150EA013C07D1BE
:100960004FEA430C7FEA6C5CD6D152EA033CD3D009
:100970005DF8040B704700BF8446104662468C4603
:100980001946634600E000BF01B5FFF7B7FF002836
:1009900048BF10F1000F01BD4DF808EDFFF7F4FF5F
:1009A0000CBF012000205DF808FB00BF4DF808EDEA
:1009B000FFF7EAFF34BF012000205DF808FB00BF0D
:1009C0004DF808EDFFF7E0FF94BF012000205DF82F
:1009D00008FB00BF4DF808EDFFF7CEFF94BF0120E4
:1009E00000205DF808FB00BF4DF808EDFFF7C4FFDD
:1009F00034BF012000205DF808FB00BF4A0011D27F
:100A000012F5001211D20DD56FF47873B3EB625268
:100A10000ED44FEAC12343F0004343EA505323FA74
:100A200002F070474FF00000704750EA013002D1E9
:100A30004FF0FF3070474FF00000704780B582B034
:100A400000AF786039607B68054A934203D139680A
:100A5000786800F012F87B6818460837BD4680BDFC
:100A60000038014080B483B000AF786039603B68E3
:100A700018460C37BD4680BC704780B582B000AFC9
:100A800078603960786800F00FF8786800F02EF828
:100A90003968786800F036F8786800F045F800BFEB
:100AA0000837BD4680BD000080B588B000AF7860D3
:100AB00007F114000B2309220B4901F0E9FE07F1AD
:100AC000080004230A22084901F0A0FE07F10803E8
:100AD000184601F0D3FE07F11403184601F013FF86
:100AE0002037BD4680BD00BF0008014080B483B000
:100AF00000AF78607B680C22DA6000BF0C37BD461F
:100B000080BC704780B483B000AF78603960054A1C
:100B10003B68B2FBF3F27B689A6000BF0C37BD46BE
:100B200080BC704700127A0080B483B000AF786058
:100B30007B68DB6843F400527B68DA6000BF0C37E7
:100B4000BD4680BC7047000080B483B000AF7860C1
:100B500000BF094B1B6803F02003002B0CBF0123CF
:100B60000023DBB2002BF4D1034B5B68DBB21846E9
:100B70000C37BD4680BC70470038014080B483B05C
:100B800000AF786039603B6818460C37BD4680BCC2
:100B9000704780B483B000AF78607B6800221A6031
:100BA0007B6818460C37BD4680BC704780B485B062
:100BB00000AFF860B9607A60BB687A68B3FBF2F2A4
:100BC000796801FB02F29B1A18461437BD4680BCB7
:100BD000704780B483B000AF786039607B683A6852
:100BE0001A607B6800225A607B6818460C37BD4645
:100BF00080BC704780B483B000AF78607B685B686E
:100C000018460C37BD4680BC7047000080B584B0E4
:100C100000AFF860B9601346FB71FB68BA681A60F0
:100C2000FB68FA791A71FB681946114800F02FF831
:100C300003461B7883F00103DBB2002B13D0FB6863
:100C40001B6800221A60FB681B6800225A60FB6860
:100C50001B680022DA60FB681946054800F017F8A7
:100C6000034601221A70FB6818461037BD4680BD46
:100C7000E000002080B582B000AF78607B68184645
:100C800000F076F87B6818460837BD4680BD80B511
:100C900082B000AF786039607B683968184600F030
:100CA00083F8034618460837BD4680BD80B584B03A
:100CB00000AFF860B9607A60B86800F0CBF803461E
:100CC0001A68FB681A60786800F064F803461A78BE
:100CD000FB681A71FB6818461037BD4680BD80B5A9
:100CE00082B000AF7860786800F0BEF87B68184684
:100CF0000837BD4680BD80B582B000AF78607868A7
:100D000000F0BCF87B6818460837BD4680BD80B54A
:100D100088B004AFF860381D80E806003B60F868D2
:100D20003B6A0293FB690193BB6900933B683A1DE0
:100D300006CA00F0ADF8FB6818461037BD4680BD06
:100D400080B582B000AF7860786800F0C5F87B6845
:100D500018460837BD4680BD80B582B000AF7860C8
:100D60007868FFF7EDFF7B6818460837BD4680BD01
:100D700080B582B000AF7860786800F0B9F8786824
:100D800000F0D6F87868FFF7E7FF7B681846083769
:100D9000BD4680BD80B483B000AF78607B681846E4
:100DA0000C37BD4680BC704790B58FB002AF7860FD
:100DB00039607B68FB623968F86A00F0C9F8B8628C
:100DC000B96AF86A00F0D8F87862BB6A3A68796A5A
:100DD000F86A00F0E2F838623B6A002B07D03B6A01
:100DE0000433184600F0F2F803461C1D2AE0FC6AA2
:100DF00007F118033968184600F0F4F807F11802F3
:100E000007F1100007F11C0300931346104A214616
:100E100000F0F7F87B6901220092BA6A796AF86AF1
:100E200000F028F90346FB6000237B6107F10C0307
:100E3000184600F068F903461C1D07F11003184618
:100E400000F003F9234618463437BD4690BD00BF75
:100E5000AC34000880B483B000AF78607B6818467B
:100E60000C37BD4680BC704780B483B000AF78605B
:100E70007B6818460C37BD4680BC704780B483B091
:100E800000AF78607B6818460C37BD4680BC704761
:100E9000B0B588B004AFF860381D80E806003B604C
:100EA0003B1D184600F03EF904463B1D184600F075
:100EB00044F902468DF80C50BB6A02937B6A019399
:100EC0003B6A00933B682146F86800F048F9FB68EC
:100ED00018461037BD46B0BD80B582B000AF78600F
:100EE000786800F05FF97B6818460837BD4680BD1A
:100EF00080B582B000AF7860786800F05DF9034695
:100F00001946786800F063F97B681A687B685B684B
:100F10009B0010461A46002102F0ECF97B68002283
:100F2000DA607B6800229A6000BF0837BD4680BD4A
:100F300080B582B000AF78607B6819687B685B68B9
:100F40001A46786800F05BF900BF0837BD4680BDDF
:100F500080B582B000AF78603960786800F066F9DB
:100F600002463B681B681946104600F06BF90346C1
:100F700018460837BD4680BD80B582B000AF7860A6
:100F800039607B685B681A463968786800F065F9F3
:100F9000034618460837BD4680BD80B586B000AF11
:100FA000F860B9607A603B603B687A68B968F86855
:100FB00000F065F978617B69002B02D07B691B68C2
:100FC00000E0002318461837BD4680BD80B582B0CA
:100FD00000AF7860786800F097F903461846083744
:100FE000BD4680BD80B582B000AF786039607B6857
:100FF0003968184600F095F97B6818460837BD46F1
:1010000080BDF0B585B000AFF860B9607A603B6034
:10101000FB68BA681A60BC68786800F091F9054608
:10102000386800F097F90646B86A00F09DF9034663
:1010300032462946204600F0AEF90246FB685A6067
:10104000FB6818461437BD46F0BD80B582B000AFCE
:1010500078607B685B68002B07D07B681A687B68C8
:101060005B681946104600F0D7F97B6818460837C8
:10107000BD4680BD90B58DB002AFF860B9607A60B2
:101080003B60FB6810331846FFF7B4FD0346FB6175
:1010900007F11C037B62FB6803F11001FB685A68CF
:1010A000FB68DC6807F11400BB6B0093234601F07A
:1010B00079FF3B7D002B0AD0BB697A6A1946F86834
:1010C00000F0C5F97968F868FFF756FFB8603B682B
:1010D00004337A681946F86800F0C8F93A68B968C4
:1010E000F86800F0CEF9FB68DB685A1CFB68DA6030
:1010F00007F120033968184600F00AFA3B6A1846DF
:101100002C37BD4690BD80B582B000AF78607B685B
:101110001B680433184600F0F7F8034618460837F2
:10112000BD4680BD80B483B000AF78607B681B682B
:1011300018460C37BD4680BC704790B583B000AFF1
:1011400078607868FFF7EEFF0446786800F0EFF902
:101150000346DB00234418460C37BD4690BD80B5DE
:1011600088B002AFF860B9607A603B60BB6A0093F8
:101170007B6A3A6A3968F86800F0E4F909E007F137
:101180001003BA68F968184600F004FABB6808331F
:10119000BB60BA687B689A42F1D1FB681846183781
:1011A000BD4680BD80B483B000AF78607B681846D0
:1011B0000C37BD4680BC704780B483B000AF786008
:1011C0007B689B6818460C37BD4680BC704780B56D
:1011D00084B000AF7860396009E03B68FB60386834
:1011E00000F0F6F93860F968786800F015F93B68A6
:1011F000002BF2D100BF00BF1037BD4680BD80B5C7
:1012000084B000AFF860B9607A60B968F86800F03F
:10121000EAF90346002B05D17A68B968F86800F04E
:10122000F9F900E000BF1037BD4680BD80B582B03F
:1012300000AF7860786800F010FA03461846083767
:10124000BD4680BD80B483B000AF786039603B6834
:1012500018460C37BD4680BC704780B586B000AFDD
:10126000F860B9607A6007F114037A68B9681846C3
:10127000FFF79CFC034618461837BD4680BD80B575
:1012800086B000AFF860B9607A603B60FB681A68AE
:10129000BB689B0013441B687B617B69002B01D1F9
:1012A00000232DE07B691B683B613B6904333A688E
:1012B0007968F86800F0DBF90346002B01D07B6900
:1012C0001EE03B691B68002B0CD0386900F080F9E8
:1012D000034604331946F86800F0E6F90246BB6895
:1012E000934201D0012300E00023002B06D13B698B
:1012F0007B61386900F06CF93861D6E700BF0023E4
:1013000018461837BD4680BD80B582B000AF786002
:101310007B68184600F0D9F9034618460837BD46E1
:1013200080BD80B582B000AF786039607B68396875
:10133000184600F0D6F97B6818460837BD4680BDD0
:1013400080B483B000AF78607B6818460C37BD4628
:1013500080BC704780B483B000AF78607B6818466B
:101360000C37BD4680BC704780B483B000AF786056
:101370007B6818460C37BD4680BC704780B582B08C
:1013800000AF78607B681846FFF703FC7B6818465F
:101390000837BD4680BD2DE9F04188B002AFF86046
:1013A000B9607A603B60F86800F0A9F90346012152
:1013B000184600F0B0F97861786900F0BBF938613F
:1013C0003B6919460C20FFF7D9FB03461846FFF787
:1013D000D5FFF86800F093F904463B6904331846DA
:1013E000FFF792FF0546B868FFF7AAFF0646786840
:1013F000FFF7B0FF80463868FFF7B6FF034600935B
:10140000434632462946204600F09EF93B6918467D
:101410001837BD46BDE8F08190B583B000AF786065
:101420003960786800F06BF904463B68043318466D
:10143000FFF76AFF03461946204600F0B2F9396803
:10144000786800F0BBF900BF0C37BD4690BD80B591
:1014500084B000AFF860B9607A601A46B968F8687D
:1014600000F0C2F900BF1037BD4680BD80B485B022
:1014700000AFF860B9607A6000BF1437BD4680BC29
:10148000704790B585B000AFF860B9607A60FB68CE
:101490001A68BB689B0013441B68002B11D0FB68C3
:1014A0001A68BB689B0013441B681A687B681A6043
:1014B000FB681A68BB689B0013441B687A681A6053
:1014C00022E0FB689A687B681A60FB687A689A6019
:1014D0007B681B68002B0FD0FB681C68786800F0E5
:1014E00077F8034604331946F86800F0DDF8034640
:1014F0009B0023447A681A60FB681A68BB689B00EB
:101500001344FA6808321A6000BF1437BD4690BD14
:1015100080B582B000AF786039607B683968184662
:1015200000F0C6F97B6818460837BD4680BD80B418
:1015300083B000AF78607B685B6818460C37BD46A7
:1015400080BC704780B586B000AFF860B9607A6043
:101550003B603B6A3A687968F86800F0B7F9FB6865
:101560001033B968184601F0DDFC7861FB685B68F0
:101570007A699A4209D97969F86800F0E7F9024670
:10158000FB681A60FB687A695A60FB68184618376E
:10159000BD4680BD90B589B002AFF860B9607A6091
:1015A000B86800F0F0F9786107F11003796918461E
:1015B00000F0F3F9F86807F110038DF800407A683D
:1015C000796900F0F8F900BFF8681C37BD4690BD96
:1015D00080B483B000AF78607B681B6818460C3716
:1015E000BD4680BC704780B483B000AF786039607E
:1015F0007B6818333A689A420CBF01230023DBB2A0
:10160000002B14BF01230023DBB218460C37BD4664
:1016100080BC704780B586B000AFF860B9607A6072
:10162000B86800F0EFF97861F86800F068F80246F1
:1016300007F110031146184600F0F0F907F1100306
:101640007A687969184600F002FA07F11003184623
:1016500000F0F1F91837BD4680BD80B483B000AF0B
:1016600078607B6818460C37BD4680BC704780B5F3
:1016700084B000AFF860B9607A603B603968786820
:1016800000F0F4F90346002B09D03A68B968F8680D
:1016900000F0F7F90346002B01D0012300E00023FE
:1016A00018461037BD4680BD80B582B000AF786067
:1016B00039607B685B681A463968786800F001FA1F
:1016C000034618460837BD4680BD80B582B000AFDE
:1016D0007860786800F017FA034618460837BD4668
:1016E00080BD80B483B000AF786039607B683A68B1
:1016F0001A607B6818460C37BD4680BC704780B5C1
:1017000082B000AF7860786800F007FA03461846A8
:101710000837BD4680BD80B582B000AF78603960C3
:1017200000223968786800F003FA03461846083743
:10173000BD4680BD80B483B000AF78607B6818463A
:101740000C37BD4680BC7047B0B586B002AFF860BC
:10175000B9607A603B607868FFF7F2FD044638684C
:10176000FFF7F8FD0546386AFFF7FEFD03460093D4
:101770002B462246B968F86800F018FA00BF103707
:10178000BD46B0BD80B584B000AFF860B9607A6086
:101790007A68B968F86800F031FA00BF1037BD46C2
:1017A00080BD80B582B000AF7860396039687868F4
:1017B00000F037FA00BF0837BD4680BD80B584B061
:1017C00000AF78603960386800F035FAF860786802
:1017D000FFF795FF03460122F9681846FFF7D2FF8D
:1017E00000BF1037BD4680BD80B58AB000AFF8603D
:1017F000B9603A71B968F86800F0A8F8F861F8685B
:10180000FFF7DAFC7862FB6800229A6000233B62F3
:101810003EE0786AFFF7DCFEB8617B6A0433BA68A1
:101820001946F86800F04DF978617B699B00FA6908
:1018300013441B68002B1AD1FB689A687B6A1A60F4
:10184000FB687A6A9A607B699B00FA691344FA68BC
:1018500008321A607B6A1B68002B05D03B6A9B002C
:10186000FA6913447A6A1A607B693B620EE07B690D
:101870009B00FA6913441B681A687B6A1A607B69CB
:101880009B00FA6913441B687A6A1A60BB697B6221
:101890007B6A002BBDD1F868FFF74AFBFB68BA688A
:1018A0005A60FB68FA691A6000BF2837BD4680BDE0
:1018B00080B483B000AF786039607B683A681A60A2
:1018C0007B6818460C37BD4680BC704790B587B022
:1018D00000AFF860B9607A603B607A68B968F86810
:1018E00000F0C2F907F114033968184600F0AFF9A7
:1018F00007F114031946F86800F0C9F907F1140359
:101900001846FFF7E9FA2146F86800F0D2F9FB68BB
:1019100003F11802FB681A60FB6801225A60FB6839
:1019200008331846FFF735F9FB680022DA60FB68D8
:1019300010334FF07E511846FFF74BF9FB68002239
:101940009A61FB6818461C37BD4690BD80B582B0D1
:1019500000AF786039603B68012B0CBF0123002386
:10196000DBB2002B05D07B6800229A617B681833BC
:1019700005E03968786800F0A7F9034600BF18460B
:101980000837BD4680BD80B483B000AF78607B6807
:1019900018460C37BD4680BC704780B483B000AF9A
:1019A000786039607B683A681A607B6818460C3743
:1019B000BD4680BC704790B589B002AFF860B96091
:1019C0007A603B60786800F0ACF9024607F11403D6
:1019D0001146184600F0AFF90346184600F0B8F972
:1019E0000446786800F09DF90246F8683B68009369
:1019F00013462246B96800F0B5F900BFF8681C37F5
:101A0000BD4690BD80B582B000AF7860786800F0C8
:101A100057FA034618460837BD4680BD80B582B0E8
:101A200000AF78603960786800F056FA7B68184635
:101A30000837BD4680BD80B582B000AF7860786859
:101A400000F054FA7B6818460837BD4680BD80B563
:101A500084B000AFF860B9607A607A68B968F868F5
:101A600000F04EFA00BF1037BD4680BD80B483B091
:101A700000AF78603960012318460C37BD4680BC42
:101A8000704790B587B000AFF860B9607A60F868C9
:101A900000F046FA04467B68184600F04DFA02460C
:101AA00007F114031146184600F045F903461A469B
:101AB000B968204600F04CFA034618461C37BD466C
:101AC00090BD80B586B000AFF860B9607A60BB6841
:101AD000184600F031FA024607F114031146184681
:101AE00000F029F903461946F868FFF731FA014674
:101AF00007F110037A681846FFF758F803461846AE
:101B00001837BD4680BD80B483B000AF78607B6875
:101B100018460C37BD4680BC704780B483B000AF18
:101B200078607B6818460C37BD4680BC7047000063
:101B300080B584B000AFF860B9607A60F86800F0F2
:101B40001BFA0246BB6893428CBF01230023DBB221
:101B5000002B14BF01230023DBB2002B07D0BB688E
:101B6000094A934201D901F0D9F901F0D4F9BA68D0
:101B700013465B0013449B00184601F0BBF9034673
:101B800018461037BD4680BD5555551580B582B0F5
:101B900000AF786039607B683A681146184600F0FB
:101BA000F7F97B6818460837BD4680BDF0B587B0A9
:101BB00000AFF860B9607A603B60BB6819460820E6
:101BC000FEF7DCFF04467868FFF7BAFB3868FFF7DA
:101BD000C1FB024607F1140311461846FFF7D6FF72
:101BE000386BFFF7C1FB07F1140233462946204644
:101BF00000F0DDF900BF1C37BD46F0BD80B584B0F4
:101C000000AFF860B9607A607A6813465B001344ED
:101C10009B001946B86801F06BF900BF1037BD464C
:101C200080BD80B483B000AF7860396000BF0C37EE
:101C3000BD4680BC704780B582B000AF78607868E0
:101C400000F0C9F9034618460837BD4680BD80B587
:101C500082B000AF78603960786800F0C8F97B68BE
:101C600018460837BD4680BD80B584B000AFF86027
:101C7000B9607A60B968F86800F0C3F97968F86803
:101C800000F0CDF9FB6818461037BD4680BD80B521
:101C900082B000AF78603960386800F0CDF9034653
:101CA0001946786800F0D2F97B6818460837BD46B7
:101CB00080BD80B483B000AF786039707B6818460F
:101CC0000C37BD4680BC704790B587B000AF7860D8
:101CD00039607868FFF713FD024607F10C031146DF
:101CE0001846FFF79BFE07F10C033968184600F011
:101CF000BFF97861786900F0CAF938613B689B00E8
:101D00003A6910461A46002101F0F4FA3C6907F1DD
:101D10000C031846FFF78FFE234618461C37BD46B6
:101D200090BD80B483B000AF78607B6818460C37F4
:101D3000BD4680BC704780B582B000AF7860396026
:101D40003868FFF7EEFF034618460837BD4680BDEA
:101D500080B483B000AF78607B6818460C37BD460E
:101D600080BC704790B593B002AFF860B9607A60FC
:101D70003B60B86800F095F9044600F09DF9034611
:101D80009C4294BF01230023DBB2002B30D0B86803
:101D900000F099F903467B611AE07B6904331A4627
:101DA0007968B86800F0D1F90346002B0BD0002306
:101DB00087F8273007F1270207F114031946F8685E
:101DC00000F0E3F978E007F11403184600F0B0F9E9
:101DD000B86800F08BF90346BB6207F1280207F1EF
:101DE00014031146184600F090F90346002BD4D195
:101DF0007968B86800F0E2F9F863F96BB868FFF742
:101E0000BBF8B863B86800F04CF9044600F054F928
:101E100003469C428CBF01230023DBB2002B1BD066
:101E2000FB6B7A68B96BB86800F0DCF978637B6BA0
:101E3000002B11D007F12C03796B1846FFF768FBD4
:101E4000002387F8323007F1320207F12C031946DC
:101E5000F86800F0E0F92FE0786800F0F5F9044642
:101E60003868FFF75EFF03463A6D1946204600F0DA
:101E7000F5F9014607F11C03BA68184600F007FAA5
:101E80003B6A01220092FA6BB96BB868FFF7F2F86F
:101E90000346BB6100233B62012387F8333007F11F
:101EA000330207F118031946F86800F06EF907F1DC
:101EB0001C031846FFF7C9F8F8684437BD4690BDC3
:101EC00080B582B000AF7860786800F0F2F9034620
:101ED00018460837BD4680BD80B483B000AF786037
:101EE0007B6818460C37BD4680BC704780B483B011
:101EF00000AF78607B6818460C37BD4680BC7047E1
:101F000080B584B000AFF860B9607A607B689B00F0
:101F10001946B86800F0ECFF00BF1037BD4680BD21
:101F200080B582B000AF7860786800F0CCF90346E5
:101F300018460837BD4680BD80B582B000AF7860D6
:101F4000786800F0CAF9034618460837BD4680BDD8
:101F500080B485B000AFF860B9607A60BB681A6879
:101F60007B681B689A420CBF01230023DBB2184632
:101F70001437BD4680BC704780B483B000AF786032
:101F8000024B18460C37BD4680BC7047AAAAAA0A65
:101F900080B483B000AF786039607B683A681268BB
:101FA0001A607B6818460C37BD4680BC7047B0B5D8
:101FB00086B002AFF86039727A603B703A468DF8AD
:101FC00000402B467968F86800F094F9FB681846E1
:101FD0001037BD46B0BD80B582B000AF786078687C
:101FE00000F0A2F9034618460837BD4680BD80B40C
:101FF00083B000AF78607B6818460C37BD4680BC64
:10200000704780B582B000AF786039603968786811
:1020100000F094F97B6818460837BD4680BD80B54E
:1020200082B000AF78603960386800F094F97B685E
:1020300018460837BD4680BD80B483B000AF7860D5
:102040007B6818460C37BD4680BC704780B582B0AF
:1020500000AF786039603868FFF7EEFF0346194635
:10206000786800F082F97B6818460837BD4680BD65
:1020700080B582B000AF7860396000223968786836
:1020800000F081F9034618460837BD4680BD80B48C
:1020900083B000AF78607B6818460C37BD4680BCC3
:1020A000704780B483B000AF78607B68DB68184607
:1020B0000C37BD4680BC704780B500AF00F08CF98E
:1020C0000346184680BD80B584B000AF786078685C
:1020D000FFF772F8024607F10C0311461846FFF7A6
:1020E00017FAFB6818461037BD4680BD80B584B02E
:1020F00000AF786007F10C0300211846FFF708FADB
:10210000FB6818461037BD4680BD80B483B000AF71
:10211000786039607B681A683B681B689A4214BF14
:1021200001230023DBB218460C37BD4680BC704744
:1021300080B582B000AF78607B68184600F053F934
:102140007B6818460837BD4680BD90B587B000AFA4
:10215000F860B9607A60F868FFF7E2FE04467B68D1
:102160001846FFF7E9FE024607F114031146184628
:10217000FFF7E1FD03461A46B9682046FFF7E8FE7F
:10218000034618461C37BD4690BD80B584B000AFED
:10219000F860B9607A60B86800F035F90246FB680B
:1021A00012681A607868FEF7F5FD03461A78FB6836
:1021B0001A71FB6818461037BD4680BD80B582B0E5
:1021C00000AF786039607868FFF730F802463B6806
:1021D0001B6819461046FFF735F8034618460837BE
:1021E000BD4680BD80B586B000AFF860B9607A604A
:1021F0003B603B687A68B968F86800F00EF978616E
:102200007B69002B02D07B691B6800E00023184625
:102210001837BD4680BD80B584B000AFF860B960A6
:102220007A60B86800F03EF90246FB6812681A60EE
:102230007868FEF7AFFD03461A78FB681A71FB68F1
:1022400018461037BD4680BD80B483B000AF7860BB
:102250007B6818460C37BD4680BC704790B585B08A
:1022600000AFF860B9607A60F868FFF7EDFF0446E8
:10227000B868FFF756FD034604331A4621467868CE
:1022800000F01AF9034618461437BD4690BD80B4D5
:1022900085B000AFF860B9607A60FB687A681A6050
:1022A000FB68BA685A60FB6818461437BD4680BCA4
:1022B000704780B483B000AF78607B6818460C37F5
:1022C000BD4680BC704780B483B000AF78607B6847
:1022D00018460C37BD4680BC704780B582B000AF51
:1022E00078607B68184600F001F903461846083705
:1022F000BD4680BD80B584B000AFF860B9607A603B
:102300003B70B86800F0FEF803461846FFF79CFFE4
:1023100003461A68FB681A60FB6800221A71FB68A2
:1023200018461037BD4680BD80B483B000AF7860DA
:102330007B6818460C37BD4680BC704780B582B0BC
:1023400000AF78603960386800F0E9F87B681846BB
:102350000837BD4680BD80B483B000AF78607B682D
:1023600018460C37BD4680BC704780B582B000AFC0
:10237000786039603968786800F0DBF87B68184667
:102380000837BD4680BD80B584B000AFF860B96045
:102390007A60F86800F0D8F80246BB6893428CBFB8
:1023A00001230023DBB2002B14BF01230023DBB287
:1023B000002B07D0BB68B3F1804F01D300F0AEFD16
:1023C00000F0A9FDBB689B00184600F093FD034692
:1023D00018461037BD4680BD80B400AF00231846B4
:1023E000BD4680BC704780B582B000AF78607B6826
:1023F0001B681846FFF7ECF802467B681A6000BFBE
:102400000837BD4680BD80B483B000AF78607B687C
:1024100018460C37BD4680BC704780B586B000AF0B
:10242000F860B9607A603B60FB681A68BB689B0023
:1024300013441B687B617B69002B01D100232DE0D5
:102440007B691B683B613B6904333A687968F868CB
:1024500000F085F80346002B01D07B691EE03B6944
:102460001B68002B0CD03869FFF7B2F80346043321
:102470001946F868FFF718F90246BB68934201D085
:10248000012300E00023002B06D13B697B61386902
:10249000FFF79EF83861D6E700BF002318461837CB
:1024A000BD4680BD80B483B000AF78607B681846BD
:1024B0000C37BD4680BC7047B0B584B000AFF86043
:1024C000B9607A60FB681C68B868FFF7BDFE054616
:1024D000786800F061F803461A462946204600F065
:1024E00065F8034618461037BD46B0BD80B582B0CA
:1024F00000AF7860786800F091F803461846083716
:10250000BD4680BD80B582B000AF78607B6818465C
:1025100000F08EF8034618460837BD4680BD80B4EB
:1025200083B000AF78607B6818460C37BD4680BC2E
:10253000704780B483B000AF786039607B6818461C
:102540000C37BD4680BC704780B483B000AF786064
:102550006FF0604318460C37BD4680BC704780B5AD
:1025600084B000AFF860B9607A603B603968786821
:10257000FFF77CFA0346002B09D03A68B968F8687F
:10258000FFF7E3FD0346002B01D0012300E0002309
:1025900018461037BD4680BD80B483B000AF786068
:1025A0007B6818460C37BD4680BC7047F0B587B0D5
:1025B00000AFF860B9607A60F868FFF7A0F80346EA
:1025C00001211846FFF7A7F878617869FFF7B2F89C
:1025D00038613B6919460C20FEF7D0FA03461846CD
:1025E000FEF7CCFEF868FFF78AF804463B6904332F
:1025F0001846FEF789FE0546B868FFF725FE064631
:102600007868FFF7C9FF034632462946204600F0A6
:102610001BF83B6918461C37BD46F0BD80B483B03B
:1026200000AF78607B6818460C37BD4680BC7047A9
:1026300080B582B000AF7860786800F01DF803467E
:1026400018460837BD4680BD90B585B000AFF8602C
:10265000B9607A603B607868FFF7F6FD0446386839
:10266000FFF79AFF03462246B968F86800F011F8B0
:1026700000BF1437BD4690BD80B582B000AF786012
:102680007B68184600F023F8034618460837BD4615
:1026900080BDB0B584B000AFF860B9607A603B60CF
:1026A000BB6819460820FEF769FA04467868FFF708
:1026B000CBFD05463868FFF76FFF03461A462946EB
:1026C000204600F00FF800BF1037BD46B0BD80B403
:1026D00083B000AF78607B681B6818460C37BD4636
:1026E00080BC704780B485B000AFF860B9607A6094
:1026F000BB681A68FB681A607B681A78FB681A71F5
:10270000FB6818461437BD4680BC704780B598B04A
:1027100004AF786039607B68012B4FD13B684FF67E
:10272000FF7293424AD12D4BFB62002387F833306E
:1027300007F1330207F12C0107F114031846FEF7E5
:10274000B5FA274B7B63002387F83B3007F13B0248
:1027500007F1340107F1140308331846FEF7A6FA0F
:10276000204BFB63002387F8433007F1430207F156
:102770003C0107F1140310331846FEF797FA07F1EE
:102780001403FB6003233B6107F14C031846FEF77B
:10279000A6FA07F14C03029307F14803019307F1EE
:1027A00044030093002307F10C0206CA0E48FEF70B
:1027B000AEFA07F14C031846FEF79DFA7B68002B32
:1027C00007D13B684FF6FF72934202D10648FEF7ED
:1027D00051FA00BF5037BD4680BD00BF0008014020
:1027E000000C014000100140E000002080B500AF67
:1027F0004FF6FF710120FFF789FF80BD80B500AF64
:102800004FF6FF710020FFF781FF80BD80B584B0D7
:1028100000AFF860B9603B601346FB71FB68FA7962
:10282000B9681846FEF7F2F9FB683A689A60FB68E7
:102830001B79072B0DD8FB681B681968FB689A6821
:10284000FB681B799B009A40FB681B680A431A606F
:102850000FE0FB681B685968FB689A68FB681B7986
:1028600003F18043083B9B009A40FB681B680A43C6
:102870005A60FB6818461037BD4680BD80B483B0EF
:1028800000AF78607B6818460C37BD4680BC704747
:1028900080B584B000AFF860B9603B601346FB714F
:1028A000FB68FA79B9681846FEF7B0F9FB683A6830
:1028B0009A60FB681B79072B0DD8FB681B681968A9
:1028C000FB689A68FB681B799B009A40FB681B6851
:1028D0000A431A600FE0FB681B685968FB689A6836
:1028E000FB681B7903F18043083B9B009A40FB681F
:1028F0001B680A435A60F86800F027F8FB6818461E
:102900001037BD4680BD80B582B000AF7860786872
:1029100000F01BF87B6818460837BD4680BD80B4C0
:1029200083B000AF78607B681B68DA687B681B79CE
:10293000194601238B4019467B681B680A43DA60FD
:1029400000BF0C37BD4680BC704780B483B000AF79
:1029500078607B681B68DA687B681B7919460123FD
:102960008B40DB4319467B681B680A40DA6000BF76
:102970000C37BD4680BC704784B090B583B000AFC3
:10298000786007F11C0080E80E000C2000F0B2FA1D
:1029900003461C46F96997F820207B6B2046FFF719
:1029A00077FF7B681C600C2000F0A4FA03461C46ED
:1029B000796A97F828207B6B2046FFF769FF7B68D0
:1029C0005C600C2000F096FA03461C46F96A97F802
:1029D00030207B6B2046FFF75BFF7B689C607B6849
:1029E00018460C37BD46BDE8904004B0704780B52E
:1029F00082B000AF78607B681B681846FFF78FFFD6
:102A00007B685B681846FFF78AFF7B689B681846FF
:102A1000FFF79BFF00BF0837BD4680BD80B582B081
:102A200000AF78607B681B681846FFF778FF7B680B
:102A30005B681846FFF789FF7B689B681846FFF7BD
:102A40006EFF00BF0837BD4680BD80B582B000AFC5
:102A500078607B681B681846FFF777FF7B685B68C8
:102A60001846FFF772FF7B689B681846FFF76DFFFB
:102A700000BF0837BD4680BD80B483B000AF0346B9
:102A8000FB71074B9B69FA79012101FA02F21146A9
:102A9000034A0B43936100BF0C37BD4680BC7047AF
:102AA0000010024080B485B000AFF860B9607A6071
:102AB0003B60FB68BA681A60FB687A685A60FB681A
:102AC0003A689A60FB68BA69DA60FB68184614379E
:102AD000BD4680BC704780B582B000AF78607B682F
:102AE0001B681846FFF79AFF7B685B681846FFF77C
:102AF00095FF7B689B681846FFF779FF7B68DB686A
:102B00001846FFF774FF00BF0837BD4680BD80B58B
:102B100082B000AF78607B681B681846FFF767FFDC
:102B20007B685B681846FFF762FF7B689B68184606
:102B3000FFF774FF7B68DB681846FFF76FFF00BF85
:102B40000837BD4680BD80B582B000AF78607B6835
:102B50001B681846FFF779FF7B685B681846FFF72C
:102B600074FF7B689B681846FFF741FF7B68DB6852
:102B70001846FFF73CFF00BF0837BD4680BD80B553
:102B800082B000AF78607B681B681846FFF746FF8D
:102B90007B685B681846FFF741FF7B689B681846B7
:102BA000FFF753FF7B68DB681846FFF74EFF00BF57
:102BB0000837BD4680BD80B582B000AF78607B68C5
:102BC0001B681846FFF741FF7B685B681846FFF7F4
:102BD0003CFF7B689B681846FFF737FF7B68DB6824
:102BE0001846FFF732FF00BF0837BD4680BD000022
:102BF000F0B597B004AF0220FFF73EFF0320FFF7C8
:102C00003BFF0E20FFF738FF3E4C07F138066D46BC
:102C100004F10C030FCB85E80F0094E80E0030465A
:102C2000FFF7AAFE384C07F12C066D4604F10C03A1
:102C30000FCB85E80F0094E80E003046FFF79CFEAE
:102C4000324C07F120066D4604F10C030FCB85E8EA
:102C50000F0094E80E003046FFF78EFE2C4C07F173
:102C600014066D4604F10C030FCB85E80F0094E8C1
:102C70000E003046FFF780FE07F1200407F12C021A
:102C800007F13801381D07F1140300932346FFF7BD
:102C900009FF204B1B681846FDF756FF034687F8CF
:102CA000473097F84730462B04D13B1D1846FFF7B5
:102CB00012FFEEE797F84730532B03D097F84730D1
:102CC000432B04D13B1D1846FFF775FF19E097F819
:102CD0004730422B04D13B1D1846FFF718FFD8E7B9
:102CE00097F847304C2B04D13B1D1846FFF72BFFBC
:102CF000CFE797F84730522BCBD13B1D1846FFF753
:102D00003EFFC6E7000000201C0000203800002025
:102D100054000020FC00002090B583B000AF786024
:102D200039607B68012B10D13B684FF6FF729342EC
:102D30000BD108491C20FDF795FE04464FF41651AF
:102D40002046FDF77BFE044B1C6000BF0C37BD46E0
:102D500090BD00BF00380140FC00002080B500AFEE
:102D60004FF6FF710120FFF7D7FF80BD80B400AFA1
:102D700000BFFDE780B400AF00BFFDE780B400AF47
:102D800000BFFDE780B400AF00BFFDE780B400AF37
:102D900000BFFDE780B400AF00BFBD4680BC7047F8
:102DA00080B400AF00BFBD4680BC704780B400AFA8
:102DB00000BFBD4680BC704780B500AF00F086F80C
:102DC00000BF80BD80B400AF01231846BD4680BC63
:102DD000704780B582B000AF7860396000F0E6FAE5
:102DE000034616221A604FF0FF3318460837BD46D7
:102DF00080BD80B582B000AF78604FF0FF31786859
:102E0000FFF7E7FF00BFFDE780B586B000AF786051
:102E1000144A154BD31A7B617B693B61134B1B68CA
:102E2000002B02D1114B124A1A60104B1A687B68B2
:102E300013443A699A4207D200F0B8FA03460C22CA
:102E40001A604FF0FF3309E0084B1B68FB60074B2B
:102E50001A687B681344054A1360FB6818461837E4
:102E6000BD4680BD0050002000040000000100208D
:102E70005802002080B400AF00BFBD4680BC704740
:102E8000FFF7F8FF0B480C490C4A002302E0D45826
:102E9000C4500433C4188C42F9D3094A094C0023A6
:102EA00001E013600432A242FBD300F085FAFFF781
:102EB0009FFE704700000020C4000020D4380008A6
:102EC000C400002054020020FEE7000080B400AFE0
:102ED000054B1B781A46054B1B681344034A1360C5
:102EE00000BFBD4680BC7047700000200401002078
:102EF00000F0B0B8012838BF012010B504462046C4
:102F000000F03AF900B110BD00F0A6F808B900F0E1
:102F10002BF98047F3E708B500F026F908B500F073
:102F200023F900000D29F8B505462BD891B31A4BAB
:102F30005C5C2046FDF75EFA064628680F46FDF702
:102F40006BFA02460B4630463946FDF7BDFA00F0F3
:102F50008BF8FDF753FD68602046F8BD581052F815
:102F6000206002EB80048E420FD21B1A221D013B0F
:102F7000002BF3DC094B14689A4208D02046FDF779
:102F800029FAD9E7F923064AF2E70346F0E74FF0BA
:102F9000FF30E0E70124DFE7AD340008B83800086F
:102FA000D43400082DE9F34792460A9A044603EB0D
:102FB00002084B680D46984546D9002B08680CBF9F
:102FC0004FF00B094FF00009FDF726FA06460F46B1
:102FD000C845404638BF4846FDF7FCF932463B46F7
:102FE000FDF79CFB804650468946FDF7F3F9024603
:102FF0000B46CDE9002342464B46FDF7E1FCC0B14C
:103000004046494600F030F8114B0022FDF7A6F883
:10301000FDF7F4FC4FEA4A01814238BF01462846D9
:10302000FFF780FF012360602370204602B0BDE8F7
:10303000F087DDE9002330463946FDF745FA00F018
:1030400013F8FDF7DBFC68600023C4E90033ECE70C
:103050000000F03F00F098B8024B1868BFF35B8F98
:10306000704700BF080100202DE9F041C1F30A5765
:10307000A7F2FF36132E02460B460C460546804645
:1030800035DC002E17DA34A3D3E90023FDF766F808
:1030900000220023FDF7A8FC50B1002C57DA24F0E1
:1030A00000442C430025AC422D4C08BF4FF0004497
:1030B00023462A4624E02B4F374101EA070C5CEAFD
:1030C000000C1DD024A3D3E90023FDF747F800220C
:1030D0000023FDF789FC0028EAD0002CBEBF4FF486
:1030E00080133341E418002524EA0704E0E7332E77
:1030F0000ADDB6F5806F03D1FDF730F802460B46C6
:1031000010461946BDE8F0814FF0FF3CA7F2134787
:103110002CFA07F70742F3D00FA3D3E90023FDF7FA
:103120001DF800220023FDF75FFC0028C0D0002C12
:103130000ADA142E01D1013406E00123C6F1340667
:10314000B3401D444545F6D325EA0705B0E7002501
:103150002C46ADE7AFF300809C7500883CE4377ED9
:103160000000F0BFFFFF0F00062008B500F0F2F8E6
:103170000120FFF73EFE0000024B0146186800F0F8
:103180002DB800BF74000020024B0146186800F003
:1031900039B900BF7400002070B50F4E0C4631687D
:1031A000054611B900F0F2F830602146284600F0DB
:1031B000EDF8431C03D14FF0FF34204670BDC41C12
:1031C00024F00304A042F8D0211A284600F0DEF8CB
:1031D0000130F2D1EFE700BF0C0100202DE9F843E8
:1031E000CD1C25F0030508350C2D38BF0C25002D0E
:1031F000064601DBA94204D90C2333600020BDE858
:10320000F883DFF8D48000F069F8D8F800301C4665
:1032100044BB29463046FFF7BFFF431C044658D144
:10322000D8F800402746002F43D1002C4BD023680C
:103230003946304604EB030900F0A8F8814542D135
:10324000216830466D1A2946FFF7A6FF01303AD0B3
:1032500023682B442360D8F800305A6862BBC8F852
:1032600000700FE02268521B20D40B2A17D9611975
:10327000A342256018BF5960636808BFC8F80010F2
:1032800062514B60304600F02FF804F10B00231D13
:1032900020F00700C21A1CBF1B1AA350AFE76268D8
:1032A000A3420CBFC8F800205A60EBE723466468CD
:1032B000AEE73C467F68B6E71A465B68A342FBD19F
:1032C00000235360DEE70C233046336000F00CF837
:1032D00094E70560D6E700BF10010020014800F028
:1032E0008FB800BF50020020014800F08AB800BF2C
:1032F0005002002003460244934200D1704703F875
:10330000011BF9E71F2938B505460C4604D91623D9
:1033100003604FF0FF3038BDC26B12B152F821305C
:103320004BB9284600F030F8224601462846BDE851
:10333000384000F017B8012B0AD0591C03D11623CE
:1033400003600120E7E70021204642F82410984757
:103350000020E0E7024B01461868FFF7D3BF00BF2B
:103360007400002038B50023064D04460846114677
:103370002B60FFF72EFD431C02D12B6803B12360A5
:1033800038BD00BF4C020020FFF71CBD38B500233C
:10339000054D044608462B60FFF736FD431C02D15D
:1033A0002B6803B1236038BD4C020020014B186824
:1033B000704700BF7400002070B500260C4D0D4C06
:1033C000641BA410A64209D100F064F800260A4D3F
:1033D0000A4C641BA410A64205D170BD55F8043BED
:1033E00098470136EEE755F8043B98470136F2E777
:1033F000C0380008C0380008C0380008CC380008C1
:103400007047704738B50546002940D051F8043C54
:103410000C1F002BB8BFE418FFF760FF1C4A1368AD
:1034200033B9636014602846BDE83840FFF75CBFDD
:10343000A34208D9206821188B4201BF19685B6834
:1034400009182160EDE71A465B680BB1A342FAD96F
:1034500011685018A0420BD12068014450188342D3
:103460001160E0D118685B68084410605360DAE7C7
:1034700002D90C232B60D6E7206821188B4201BFAC
:1034800019685B680918216063605460CBE738BD38
:1034900010010020F8B500BFF8BC08BC9E4670477C
:0C34A000F8B500BFF8BC08BC9E467047A1
:1034AC000002020203050507070B0B0B0B0D0D00A9
:1034BC0002000000030000000500000007000000EF
:1034CC000B0000000D0000001100000013000000B4
:1034DC00170000001D0000001F0000002500000068
:1034EC00290000002B0000002F0000003500000018
:1034FC003B0000003D0000004300000047000000BE
:10350C00490000004F00000053000000590000006B
:10351C0061000000670000006D00000071000000F9
:10352C007F000000890000008B0000009500000067
:10353C009D000000A7000000B3000000C1000000C7
:10354C00C7000000D3000000E3000000F100000001
:10355C0001010000150100002501000039010000E7
:10356C0051010000670100007F010000990100007B
:10357C00B7010000D3010000F70100001D0200009C
:10358C00410200006B02000095020000C502000021
:10359C00F90200003703000077030000B9030000B4
:1035AC000704000055040000A904000009050000F0
:1035BC0065050000D50500004D060000CD06000095
:1035CC0057070000ED0700008308000035090000D4
:1035DC00F5090000C10A00009B0B0000890C0000DB
:1035EC008D0D00009B0E0000BB0F0000FD100000B5
:1035FC005F120000DF1300007F1500004117000070
:10360C001B190000251B00005D1D0000BB1F0000E6
:10361C004F2200001925000021280000692B000012
:10362C00EB2E0000B7320000D1360000453B000005
:10363C001B40000055450000EF4A000011510000EE
:10364C00AF570000D95E00009B660000FB6E0000C7
:10365C0007780000C78100005D8C0000D99700003E
:10366C003BA40000A9B1000031C00000D1CF000084
:10367C00D5E0000019F30000EB060100711C0100FD
:10368C00BB330100ED4C01002B6801009585010056
:10369C0079A50100FBC701003FED01009F15020059
:1036AC00514102007F70020085A30200D3DA0200B0
:1036BC00A91603005B570300619D030017E9030083
:1036CC000D3B0400AF93040097F30400555B050019
:1036DC008BCB0500E944060047C80600715607006D
:1036EC0031F0070099960800874A0900410D0A003D
:1036FC00F9DF0A00E9C30B0085BA0C0053C50D00B5
:10370C00F1E50E00431E100025701100ADDD120016
:10371C001D691400F1141600DBE31700A3D819007F
:10372C0071F61B00A3401E00D1BA2000F3682300E1
:10373C003D4F26005972290037D72C0027833000C3
:10374C00237C340057C83800AF6E3D007B764200B6
:10375C00BDE7470013CB4D00D1295400F30D5B009E
:10376C00C7826200B5936A00E34D730017BF7C00FB
:10377C003BF68600770392004DF89D00E9E7AA001E
:10378C00B9E6B800DF0AC800736CD8006F25EA00F0
:10379C00F951FD0077101201DB812801B9C94001F4
:1037AC008D0E5B010B7A77016D399601617DB70146
:1037BC00957ADB01596A0202638A2C02871D5A0230
:1037CC00136C8B0235C4C002B77AFA0219EB3803BA
:1037DC006F787C03E18DC503679F1404752A6A0416
:1037EC00EBB6C60487D72A052D2B9705B55D0C06BD
:1037FC0029298B0695561407DDBFA8075150490897
:10380C00BB06F708F9F6B2090D4B7E0A93455A0B25
:10381C00C343480C31BF490D5D50600E5BB18D0F39
:10382C005FC0D310BD8234124D28B213890E4F15D0
:10383C00A5C40D17850FF11809EEFB1AC99D311D92
:10384C0075A0951F11C12B225D1AF824F11CFF27BE
:10385C00A596452BB7B9D02EE725A6324BF0CB3623
:10386C00D5AD483B217D2340691264451FC3124BE3
:10387C0075933851D744DF57D164115FAD5EDA666A
:10388C00AF8C466F434C6378D9123F822985E98C03
:10389C00BD8F7398F781EFA40F2B71B251F90DC145
:1038AC00AF1CDDD04BABF7E1AFC878F4FBFFFFFFEB
:0438BC00FBFFFFFF10
:0C38C00035010008ED2700085D2D000810
:0838CC0011010008FD270008AE
:1038D4000008014006000000000801400500000047
:1038E400000C01400100000002000000000C014037
:1038F400000000000008014004000000000801402E
:103904000000000002000000000C0140060000005E
:10391400000801400B000000000801400C000000FA
:1039240002000000000C01400C000000000C0140EB
:103934000D000000000C01400E0000000200000019
:1039440001000000780000200000000014010020A5
:103954007C010020E40100200000000000000000C1
:103964000000000000000000000000000000000053
:103974000000000000000000000000000000000043
:103984000000000000000000000000000000000033
:04399400000000002F
:0400000508002E8140
:00000001FF
